:020000040800F2
:1000000000040020EF010008FD010008FF010008C6
:1000100001020008030200080502000800000000B9
:1000200000000000000000000000000007020008BF
:1000300009020008000000000B0200080D02000881
:10004000E72700080F0200080F0200080F0200084F
:100050000F0200080F0200080F0200080F0200083C
:100060000F0200080F0200080F0200080F0200082C
:100070000F0200080F0200080F0200080F0200081C
:100080000F0200080F0200080F0200080F0200080C
:100090000F0200080F0200080F0200080F020008FC
:1000A0000F0200080F0200080F0200080F020008EC
:1000B000EB200008A52000080F0200080F0200082E
:1000C0000F0200080F0200080F0200080F020008CC
:1000D0000F02000895190008C3190008FB19000851
:1000E0000F0200080F0200080F0200080F020008AC
:1000F0000F0200080F0200080F0200080F0200089C
:100100000F0200080F0200080F0200080F0200088B
:10011000671A0008C91A00080F0200085F210008CA
:100120000F0200080F0200080F0200080F0200086B
:1001300000F002F800F045F80AA090E8000C8244B4
:100140008344AAF10107DA4501D100F03AF8AFF291
:10015000090EBAE80F0013F0010F18BFFB1A43F0A5
:10016000010318476447000084470000103A24BF89
:1001700078C878C1FAD8520724BF30C830C144BF0C
:1001800004680C607047000000230024002500264E
:10019000103A28BF78C1FBD8520728BF30C148BFEA
:1001A0000B607047642903F04785782903F0808548
:1001B000732903F0B087002070471FB51FBD10B52D
:1001C00010BD03F0DBFF1146FFF7F7FF00F032F838
:1001D00003F0F9FF03B4FFF7F2FF03BC01F0CCFB1F
:1001E00030BF72B662B680F30888704770470B481C
:1001F00080470B4981F308880A480047FEE7FEE77D
:10020000FEE7FEE7FEE7FEE7FEE7FEE7FEE7FEE7C6
:1002100005480649044A064B70470000ED010008F6
:100220004014002031010008400C00204014002040
:10023000400C002086B000200190029003900490B2
:10024000092001F0D4FE482001F03EFB012001F01E
:10025000B9FE4FF46141482001F043FC01F0CCFFAE
:1002600041F61F4142F20F7001F04BFF40F6C411FE
:10027000062002F065FA02F0D3FA02F0A5FF02F0C0
:1002800067FC00F005F90F4803F0CEF902F066FABA
:1002900000F095FA00BF03F066FA01F016F805AA1F
:1002A00001A9012002F025F99DF804000028F2D0F0
:1002B0000020059001A801F0C1FA142101A803F063
:1002C0007FFDE8E756000020F8B500208DF800001B
:1002D000F9494879C11700EB9171891041F0D006B6
:1002E000D0241AE0D0208DF8000002236A460321B2
:1002F000F24802F0D0F80020F1498870F14981F805
:1003000040000A2001F018FBEE4890F82000A042BF
:1003100001D1681CC5B2601CC4B2B442E2DB2946FC
:10032000E9A003F01FFCE4494879C11700EB917183
:10033000B5EBA10F01D0012400E000242046F8BD58
:1003400070B58021E44803F03BFD002416E0002551
:1003500010E0E24800EB8400405DC5F10301C900F4
:100360008840DD4951F824100843DB4941F8240056
:10037000681CC5B2042DECDB601CC4B2102CE6DB9B
:10038000002420E0FF2004EB8401D54A50540020D3
:1003900004EB840111444870D248005D04EB8401F1
:1003A00011448870D04800684000CF490860CD48AB
:1003B000005D00F00F0020B10846006840F0010029
:1003C0000860601CC4B2202CDCDB2021C74803F08D
:1003D000D5FCFF222021C64803F0C8FC00244AE0D7
:1003E000C048005D00F00F00082840D2DFE800F0B0
:1003F0003F040C141D262E36BE48005D401E00EB47
:100400004000BB490C5433E0BA48005D401E00EB8D
:100410004000B7490C542BE0B648005D401E00EB8D
:100420004000B3490844447022E0B248005D401ED9
:1004300000EB4000AE490844847019E0AD48005D0F
:10044000401E00EB4000AA490C5411E0A948005D91
:10045000401E00EB4000A6490C5409E0A548005D91
:10046000401E00EB4000A2490844447000E000BF79
:1004700000BF601CC4B2202CB2DBCD2002F05AFABF
:1004800006469D48017832469CA003F06BFB70BD88
:1004900010B542F20E7002F070FA4FF6FF7188420A
:1004A00007D19CA003F05EFB42F21071881E02F09F
:1004B00031FA42F20E7002F060FA9A4908807E4AE0
:1004C0003221062002F0ABFA012002F056FA9649DA
:1004D0000880964A3221382002F0A1FA332002F037
:1004E0004CFA91494880924A32216A2002F097FAE8
:1004F000652002F042FA8C4988807E4A32219C2095
:1005000002F08DFA972002F038FA8749C880C92096
:1005100002F033FA84490881CD2002F00BFA044638
:10052000754A2146CE2002F07AFA40F2EF2002F01E
:1005300024FA7D49488140F2F91002F0FBF90446A3
:10054000664A21464FF4FD7002F069FA40F2F51058
:1005500002F013FA74498881624A28214FF424700A
:1005600002F05DFA40F28B2002F007FA6E49C88172
:10057000FFF7E6FE10BD00B5ADF54B7D1E21C3A80B
:1005800003F01EFC14226B49BEA803F0BDFB4FF420
:10059000B47164A803F014FC2822664914315AA8E7
:1005A00003F0B2FB70213EA803F00AFC61493C3124
:1005B00091E80D00C968CDE93B233D913A903C227A
:1005C0005C494C312BA803F09FFB162125A803F0B2
:1005D000F7FB1C22574988311EA803F095FB162112
:1005E00018A803F0EDFB1C225249A43111A803F016
:1005F0008BFB00200D900E900F9010904D4BC03350
:100600000FCBCDE90B23CDE9090100200590069021
:1006100007900890474BD033D3E90021D3E9020378
:10062000CDE90303CDE90121BEAA3221062002F063
:10063000B4F91EAA3221382002F0AFF911AA3221F2
:100640006A2002F0AAF901AA32219C2002F0A5F941
:100650005AAA4FF4C871CE2002F09FF93AAAC821D5
:100660004FF4FD7002F099F92BAA4FF4C8714FF4C2
:100670003D7002F092F909AA28214FF4247002F08B
:100680008CF90DF54B7D00BD262870D2DFE800F017
:1006900013545B5C5D5E7081828394949494949413
:1006A0008485868788898A8B8C8D9494949494947D
:1006B0008E8F9091929380E0B60100200048004018
:1006C0003E000020C90A00204E6F64655F746573A8
:1006D000742D2D2D25640000640000208605002067
:1006E000160100200606002000000020C00B00209C
:1006F000E4000020240200205602002054494D4509
:100700005F445F434F4E462D2D2D25782D2D2D25F1
:10071000780A0000746865206669727374207469D1
:100720006D650A004A00002026060020E80100202E
:1007300006020020244700087049098841F00101A1
:100740006E4A118039E038E037E036E06B490988BD
:1007500041F00101694A118069490978012905D1EF
:100760000221674A11700021664A116025E023E0EA
:1007700063490978022905D10321614A11700021DA
:10078000604A11605D49098841F001015B4A1180AE
:1007900013E012E011E010E00FE00EE00DE00CE0DD
:1007A0000BE00AE009E008E007E006E005E004E00D
:1007B00003E002E001E000E000BF00BF70472DE968
:1007C000FF41002501264D48008820F001004B49DB
:1007D000088001F0C3FF00247EE004EB840000EBFE
:1007E000C4004949085C00F0800060B304EB840158
:1007F00001EBC401444A1144481C02F060FF002888
:1008000068D001F0ABFF4148047004EB840101EBB8
:10081000C4013D4A1144C97A01EB81014FF43D7294
:1008200002EB81003A4A142102F0F9F804EB84004B
:1008300000EBC40034490844857A2A46214635A095
:1008400003F090F946E004EB840000EBC4002E496D
:10085000085C3749C978491E06FA01F108400028AA
:1008600038D004EB840303EBC403274F3B445A7A8C
:1008700004EB840303EBC4033B44197A04EB8403C5
:1008800003EBC4033B44D87902F04FFF10B301F0EF
:1008900065FF1E4804700146097801EB810202EBF6
:1008A000C1013A461144C97A01EB81014FF43D720E
:1008B00002EB8100164A142102F0B1F804EB840027
:1008C00000EBC40039460844857A2A46214619A01F
:1008D00003F048F9601CC4B2202CFFF67EAF284616
:1008E000FFF7D2FE45B9072269464FF0FF3000F00E
:1008F0002FF8684601F04FFEBDE8FF81000400407C
:1009000011000020300000205602002004000020CA
:100910000201002054696D655F616E615F737461EF
:1009200072742D2D2D322D2D25642D2D25640A0058
:100930005600002054696D655F616E615F7374617C
:1009400072742D2D2D312D2D25642D2D25640A0039
:1009500030B5034600200EE003FA00F404F0004432
:100960003CB100F1100404EB8404FE4D2C5D1440F6
:100970000C54441CE0B2FC4C64798442ECDC30BD85
:1009800001460020F94A12F82120024340EA0220E1
:10099000F64A02EB81025278024310437047F8B5E1
:1009A00005460C46174600268DF800408DF801508C
:1009B000EF480068012823D1EE4951F82410C843BC
:1009C0000122E849491CFFF7C3FFEA4951F8240016
:1009D0000322E449491CFFF7BBFFE248401C01F039
:1009E000DAFD02236A460521012001F05EFC0A209F
:1009F00000F0A2FF02236A460521012001F055FC08
:100A0000681CDB490968884203D101260020D849C7
:100A100008603046F8BDF0B504460D461646D54888
:100A200050F82400D449096820EA010707EA0500C4
:100A30003246CC49491CFFF78BFFF0BDF0B50446A8
:100A40000D461646CB4850F82410CB48006820EAE3
:100A5000010707EA05003246C249491CFFF778FF43
:100A6000F0BD2DE9F04707460C4615461E464FF0EF
:100A70000008C248005D00F00F01C04A601C105C15
:100A800000F00F000144A01C105C00F00F000844AF
:100A9000401E00F0FF09B6480068012806D1104644
:100AA000005D021131463846FFF7B5FFB348005DDF
:100AB00000F00F00AE490968884207D1AF49601CB9
:100AC000085C021131463846FFF7A5FFAB48005DD0
:100AD00000F00F01A94A601C105C00F00F000844F0
:100AE000A3490968884207D11146A01C085C02117D
:100AF00031463846FFF78FFF9D480068012806D130
:100B00009F48005D0211F1433846FFF784FF9C487F
:100B1000005D00F00F0096490968884207D19849A6
:100B2000601C085C0211F1433846FFF774FF9448DB
:100B3000005D00F00F01924A601C105C00F00F0095
:100B400008448B490968884207D11146A01C085CFB
:100B50000211F1433846FFF75EFF8548006801281F
:100B600006D18648405D021131463846FFF766FFE0
:100B70008248405D00F00F007D490968884207D136
:100B80007E49681C085C021131463846FFF756FF63
:100B90007A48405D00F00F01784A681C105C00F054
:100BA0000F00084472490968884207D11146A81C01
:100BB000085C021131463846FFF740FF6C48006878
:100BC000012806D16E48405D0211F1433846FFF717
:100BD00035FF6B48405D00F00F00654909688842A9
:100BE00007D16749681C085C0211F1433846FFF7DA
:100BF00025FF6348405D00F00F01614A681C105CEE
:100C000000F00F0008445A490968884207D111468C
:100C1000A81C085C0211F1433846FFF70FFF51484A
:100C2000401C01F0B8FC52480068814509D1514888
:100C300050F82700504908604FF0010800204C4947
:100C4000086000204F4908704046BDE8F0871FB596
:100C500001F084FD1A204C4908704C48007888B98E
:100C600044480068C0434449086049480B220821B1
:100C700003680020FFF7F5FE444908700846007835
:100C80004449087041480078012854D14249087805
:100C900000EBD0714910A0EB4101F1B13F493E4852
:100CA0000078001D085C4978884205D100213B4A44
:100CB00039480078001D1154384A37490978091D10
:100CC000505C334905220B680221FFF7CAFE324906
:100CD000097808443049087010E0304B2E4A1278E9
:100CE000D21C995C2C4A1278921C985C0022FFF767
:100CF00056FE29490978084427490870264908788A
:100D00002649497800EBD072B1EB620F09DCFFF79E
:100D100056FD0020204908701549086001201D4932
:100D200008701C48007830B100BF01F052FC002868
:100D3000FBD11849087015480078022850D117498E
:100D400015480078801C085C0A4951F82000C0430F
:100D500009490860114A10490978891C505C0C49FE
:100D600011221DE016010020B6010020860500209A
:100D700030000020640000200C000020E80100206A
:100D8000060200203400002008000020110000208E
:100D900000000020100000201200002002010020AE
:100DA0000B680E21FFF75DFED0B1AB48008820F044
:100DB0000100A9490880A94802786946A848006846
:100DC000FFF7C6FDA74802786946A5480068C043FA
:100DD000FFF7BEFD684601F0DEFBA3A002F0C2FEF5
:100DE000A5480078032815D10020A4490870A4481C
:100DF0000068C043A349086099481722142103687A
:100E00000020FFF72EFE28B101209B4908709EA00C
:100E100002F0A8FE1FBD10B5044600209E490860E0
:100E20008D48008840F001008B490880A079112886
:100E30001CDBA079182819DCA07900F00F0040F025
:100E400090009649087096498C480078801C085C90
:100E50008B4951F820008B4908609048007800F0D9
:100E60000F000121C1EB400084490870A0791C28C3
:100E70003FD008DC10280FD0192819D01A2824D008
:100E80001B2844D131E01D2837D01E2839D0D02866
:100E90003BD0F0283BD139E08248017882A002F0B3
:100EA00061FE01237F4ACF21184601F075FA2FE039
:100EB00080A002F057FE19207A49087001230A46E3
:100EC000CF21184601F068FA22E07DA002F04AFE28
:100ED0001A20744908700020704908700123714A73
:100EE000CF21184601F058FA12E0B1206B49087082
:100EF0000EE0C120694908700AE0D12067490870F6
:100F000006E000206549087002E001E000E000BF53
:100F100000BF10BD1FB56148007800F0F0009028B8
:100F20006BD0B02804D0C02834D0D0287ED163E064
:100F30005B4952480078801C085C514951F82000F8
:100F4000C04350490860564A4C490978891C505C96
:100F5000434911220B680E21FFF783FDC8B13E48BB
:100F6000008820F001003C4908801B204B49087094
:100F700001230A46CF21184601F00EFA0020474906
:100F8000087001226946401EFFF7E2FC684601F046
:100F900002FB5FE0424939480078801C085C384910
:100FA00051F82000C043374908603D4A3349097869
:100FB000891C505C2A4911220B680E21FFF751FD54
:100FC000C8B12548008820F00100234908801C2072
:100FD0003249087001230A46CF21184601F0DCF996
:100FE00000202E49087007226946401EFFF7B0FC1A
:100FF000684601F0D0FA2DE02CE0294A1F49097813
:10100000891C505C164905220B680221FFF729FD57
:10101000F0B10120204908602048007800F00F005E
:1010200040F010001D490870012300E011E00A465D
:10103000CF21184601F0B0F9002018490870184A6D
:101040000E480078801C115C0022FF20FFF7A7FCEF
:1010500000E000BF00BF1FBD00040040E801002009
:101060000000002006020020BDF8C8EBB4FDBBFA6A
:10107000C4A3CABD0000000011000020120000201F
:10108000640000200C000020CDCBB3F6B4FDBBFA09
:10109000C4A3CABD000000003000002013000020DF
:1010A0000201002008000020C6F4B6AF2D2D2578DF
:1010B00000000000CAD6B6AFBFD8D6C600000000F8
:1010C000D7D4B6AFBFD8D6C60000000010B5FD48D3
:1010D0000188FD4A002001F0A2FCFA480188FA4884
:1010E00001F0D5F8962000F027FCF6484188F64A32
:1010F000322001F094FCF3484188F34801F0C7F82E
:10110000962000F019FCEF488188EF4A642001F036
:1011100086FCEC488188EC4801F0B9F8962000F094
:101120000BFCE848C188E84A962001F078FCE548C5
:10113000C188E54801F0ABF8962000F0FDFBE148DE
:101140000189E14AC82001F06AFCDE480189DE48D5
:1011500001F09DF8642000F0EFFBDA484189DA4A9B
:1011600040F2EE2001F05BFCD6484189D64801F000
:101170008EF8962000F0E0FBD2488189D24A4FF4E5
:10118000FA7001F04CFCCF488189CF4801F07FF81C
:10119000962000F0D1FBCB48C189CB4A40F28A208F
:1011A00001F03DFCC748C189C74801F070F896209E
:1011B00000F0C2FBC348018AC34A40F2564001F026
:1011C0002EFCC048018AC04801F061F8962000F06A
:1011D000B3FBBC48418ABC4A40F29C4001F01FFC72
:1011E000B848418AB84801F052F8962000F0A4FBB4
:1011F000B448818AB44A40F2145001F010FCB1485E
:10120000818AB14801F043F8962000F095FBAD4883
:10121000C18AAD4A40F2465001F001FCA948C18A9A
:10122000A94801F034F8962000F086FBA548018B10
:10123000A54A4FF4AF6001F0F2FBA248018BA2482F
:1012400001F025F8962000F077FB10BD10B5A2B094
:1012500064229E4907A802F057FD002428E042F2CC
:10126000107101EBC40020AA082101F0D8FB9DF801
:10127000870000EB800007A901EB40009DF8861075
:101280009DF885209DF88430CDE90232CDE9041027
:101290009DF883009DF88210CDE900109DF8813003
:1012A0009DF8802021468AA002F05CFC601CC4B23C
:1012B00095490988A1F51C501038C11700EB5171F0
:1012C000B4EBE10FCBDB22B010BDF0B5EDB08F4831
:1012D00006780025002700248DA103C9CDE903016C
:1012E0008DA207CA8DE8070088480088864222D16F
:1012F000002E20D08B480078C7281CD0894903A82D
:1013000002F086FD18B988A002F02CFC0CE085499B
:10131000684602F07DFD18B988A002F023FC03E0C6
:1013200080498CA002F01EFC002078490880C8216A
:101330007C4802F023FD7548008800F40040002836
:1013400070D0724806784FF4C87109A802F038FDD1
:10135000032505E07348405D384487B2681CC5B278
:10136000701EA842F6DC6F4881784078204341EA3D
:10137000002084B2204604EBD0714910A4EB410157
:1013800009B1781C87B2701E6649095CF843C0B287
:10139000401C81427DD1701E624B1A5C1846017957
:1013A00071A002F0DFFB201D84B25E48C0780028E7
:1013B00070D15C480079C03810286CD2DFE800F0AA
:1013C0000815223340586FF6F4F36B6BF26B6B81A8
:1013D0003C480480534A2146002001F0DEFAA11F58
:1013E000684A062001F01BFB2FE1364844804D4A35
:1013F0002146322001F0D1FAA11F634A382001F0C2
:101400000EFB22E12F488480464A2146642001F0E9
:10141000C4FAA11F5D4A6A2001F001FB01205C496A
:10142000087012E100E22748C4803E4A2146962017
:1014300001F0B3FAA11F574A9C2001F0F0FA04E131
:101440002048048109AA4FF4C871C82001F0A5FA08
:101450004FF4C871504802F091FC324A2146C8202E
:1014600001F09BFAE11F4C4ACE2001F0D8FAECE0E3
:101470001448448100204949087009AA4FF4967124
:1014800040F2EE2001F089FA264A214640F2EE2091
:1014900002E0AFE1DDE0D7E001F07FFAD5E00948F6
:1014A000848100203D4908701E4A21464FF4FA709D
:1014B00001F073FAA11F3A4A4FF4FD7001F0AFFA40
:1014C000C3E0B1E0260600208A0600200448000898
:1014D000B5DA2564CCF5C8D5D6BE2D2D2564C4EA71
:1014E0002564D4C22D2564C8D52DD0C7C6DA25649D
:1014F0002D2564CAB12D2564B7D62D2564C3EB2DE7
:101500002D25730A000000004A0000202A00002058
:10151000636F6E6E65637400646973636F6E6E658E
:10152000637400008A080020436F6E6E6563742048
:10153000204F4B3A20312D2D0A000000446973637F
:101540006F6E6E65637420204F4B3A20302D2D0A4C
:1015500000000000526563656976655F6572723AE6
:101560002025732D2D0A0000526563656976655F3D
:10157000646174613A2025782D2D25782D2D4F4BEF
:101580000A000000B6010020E80100200602002049
:101590001400002024020020560200201100002028
:1015A0008605002026E01CE012E0FFE7B548C48174
:1015B0000020B5490870B54A214640F28A2001F062
:1015C000ECF9B34A80214FF4FD7001F028FA3CE0B9
:1015D000AC480482AD4A214640F2564001F0DDF9A4
:1015E00033E0A8484482A94A214640F29C4001F0D9
:1015F000D4F92AE0A5488079A6490870A348C079A3
:101600004870A248007A8870A048407AC8709F4805
:10161000807A08719D48C07A48719C48007B887127
:10162000002001F0A8FF10E0002506E09749A81D62
:10163000085C99494855681CC5B294484079A8424D
:10164000F4DCFFF704FB00E000BF00BFFEF778FE0C
:10165000E2E08E480079C12804D0C2280BD0C62809
:101660001BD111E087488482884A214640F21450F9
:1016700001F093F912E08348C482844A214640F283
:10168000465001F08AF909E07E4804837F4A2146EA
:101690004FF4AF6001F081F900E000BF00BF7B486C
:1016A000FFF7B9FB7948807909287DD2DFE800F09F
:1016B00005263F888E9498999F007848008820F0EE
:1016C000010076490880002205A9501EFFF740F965
:1016D00005A800F060FF01230022EF21184600F06A
:1016E000E4FD0A2000F028F901230022EF2118462A
:1016F00000F0DBFD022001F0BBF97AE001230022BB
:10170000EE21184600F0D1FD0A2000F015F9012362
:101710000022EE21184600F0C8FD6048008840F025
:1017200001005E490880032001F0A2F961E0042075
:1017300001F09EF95948008820F0010057490880BF
:1017400000253AE001F00AF8002205A9501EFFF733
:10175000FFF805A800F01FFF4FF0004121FA05F047
:10176000012205A9FFF7F4F805A800F014FF4FF4D3
:10177000966000F0E1F84FF0004121FA05F00222F6
:1017800005A9FFF7E5F805A800F005FF4FF49660FE
:1017900000F0D2F84FF0004121FA05F0032205A92C
:1017A000FFF7D6F805A800E022E000F0F4FE4FF4C1
:1017B000966000F0C1F8681CC5B2102DC2DB18E0BD
:1017C00000F0FAFB052001F053F912E0FFF73EFDAF
:1017D000062001F04DF90CE0072001F049F908E07E
:1017E00007E0FFF773FC082001F042F901E000E098
:1017F00000BF11E0701EDFF894C01CF80030F84301
:10180000C0B2421C6046017925A002F0ABF900206D
:101810002B4908806DB0F0BD0020294908804FF4A5
:1018200096711A4802F0AAFA2648007820B10020E2
:101830002449087000F0C0FB4046EBE710B50446B1
:1018400060780F2819D2DFE800F00809180A0B0C9D
:101850000D0E0F181818181810000FE00EE00DE00C
:101860000CE00BE00AE009E008E0A0780A49087003
:10187000E0784870FFF7EBF900E000BF00BF2846B2
:1018800010BD000026060020110000208A0800205C
:10189000C00B00205600002015000020000400406E
:1018A000526563656976655F646174613A20257885
:1018B0002D2D25782D2D25782D2D6661696C0A003A
:1018C0002A000020140000204FF0E021096921F0D7
:1018D00004014FF0E0221161C21700EB5272C2F313
:1018E000C702234B1A701946097801EB4102C2EB7B
:1018F000C1114FF6FF7202EAC1011E4A1180704702
:1019000001461B4A12784A434FF0E0235A610022F5
:101910009A6101221A6100BF4FF0E022106900F0C5
:1019200001021AB100F48032002AF5D000224FF0F3
:10193000E0231A619A61704701460E4A12884A43B1
:101940004FF0E0235A6100229A6101221A6100BF20
:101950004FF0E022106900F001021AB100F4803269
:10196000002AF5D000224FF0E0231A619A617047F7
:101970001E00002020000020014600BF704738B53F
:1019800004460D46E0B200900121684600F07FFC5D
:10199000204638BDF949098801F0200181B1F74995
:1019A000091D0988C8B2F6490978202908DAF449DE
:1019B0000978F44A5054F2490978491CF04A1170E8
:1019C0007047F149098801F02001A1B1EE49091DD4
:1019D0000988C8B2002101B17047E9494978202936
:1019E00009DAE7494A78E74920318854E4494978D7
:1019F000491CE34A517000BFEEE710B5E34909887E
:101A000001F0200131B3E149091D088800F480711B
:101A100001B110BDDE49098801F40041D1B9DC49AA
:101A200009880A2917DA0021DA4A1180D849098879
:101A300039B9D8492439098841F00101D54A243AF5
:101A40001180D3490B880988491CD14C2180CD498C
:101A50004031C85405E0CE49098841F40041CC4AE0
:101A6000118000BFD5E7CC49098801F0200119B3E6
:101A7000C949091D0988C8B2C849098801F400414B
:101A8000D1B9C6490988B1F5007F16DA0021C14AEB
:101A90001180C249098839B9BE492439098841F001
:101AA0000101BC4A243A1180BC490A880988491CB2
:101AB000BA4B1980BA49885405E0B849098841F4FD
:101AC0000041B64A1180704710B5B648008800F052
:101AD000200028B1B3488088C4B2204601F0CAFA79
:101AE00010BD2DE9F05F05460E46300102F0BAFC4C
:101AF0008146AD4905FB01F002F0B4FC824649463F
:101B000002F0CEFB0746384602F08CFC84B2204639
:101B100002F0A8FC8346394602F084FD82464FF06D
:101B2000834102F0B3FC814602F07CFC80464FF614
:101B3000FF7000EA041404EB080084B29B4880693B
:101B400040F48040994988610846C06940F4F0102B
:101B5000C8610846806940F03C008861944800688C
:101B600020F47F60924908600846006840F40B60EA
:101B70000860081F006820F47F40091F08600846BD
:101B8000006840F40B4008608A48006820F47F40F9
:101B9000884908600846006840F40B4008608648A1
:101BA000406886490840844948600846406884493E
:101BB0000843814948608348006820F47060814987
:101BC00008600846006840F4006008607748C06814
:101BD00040F480407549C8600846C06820F48040E1
:101BE000C8600846006940F4F010086108460069C2
:101BF00020F4F0100861614808300480001D00885E
:101C000042F20C0108435D490C31088040F25370E8
:101C10005D4908310880081D008843F60E0108431D
:101C200059490C31088040F25370584908310880F6
:101C3000081D008843F60E01084354490C31088002
:101C400040F27120544908310880081D008842F292
:101C50000C01084350490C31088040F6A6605149F8
:101C600008810846808942F20C0108434D49888169
:101C700042480C30008840F4807040490C310880A4
:101C80000846008840F020000880022325221946DB
:101C9000002000F0B1F83C481030008840F002000D
:101CA000394910310880081F008840F48070091FEE
:101CB00008800846008840F0200008800223262281
:101CC0000121002000F098F830481030008840F0E2
:101CD00002002E4910310880081F008840F48070EF
:101CE000091F08800846008840F020000880002076
:101CF0002749088002232722032100F07DF8264887
:101D00000C30008840F4807023490C31088008466C
:101D1000008840F0200008801F481430008840F000
:101D200080001D4914310880022334220421002040
:101D300000F062F841F61F41632000F02AFA00200B
:101D40001649088013482438008820F00100114902
:101D5000243908801348808940F4807011498881B3
:101D60000846808940F02000888102233522042122
:101D7000184600F041F8BDE8F09F0000003801402F
:101D80003E000020C90A00200044004000480040F6
:101D90002800002024140040004C00402A000020AD
:101DA0008A0800200050004040420F00001002400E
:101DB00004080140040C014000100140FF00F0FF46
:101DC000008B0B0000140140AA4A0A400243AA4BB0
:101DD0001A6070470146072323EA01021202A64B4C
:101DE0001B1D18684FF6FF031840A44B18431043FF
:101DF000A14B1B1D186070472DE9F04780468946AE
:101E000014461D462046E11704EB9171C1F3870A81
:101E1000E11704EB91718910A4EB8101CFB204208A
:101E200000EBC700C7B22846FFF7D4FFC5F1040096
:101E300008FA00F60F20284100EA0900064306F0E0
:101E40000F06202C09DA8E4801680120A0400143CA
:101E50004FF0E020C0F800110BE08948001D006839
:101E6000A4F1200101228A4010434FF0E021C1F883
:101E70000401844850F82A0006FA07F10843814912
:101E800041F82A00BDE8F08770B504460B46CE172E
:101E900001EB9676C6F38700CE1701EB9676B61067
:101EA000A1EB8606B606350E774B9B6943F001031E
:101EB000754EB3614FEAB63353F820300F26AE406B
:101EC000B343724E46F82030334653F8203004FABC
:101ED00005F61E436D4B43F820606D4B1B680126D1
:101EE0008E4033436A4E336002F0010343B1684BC6
:101EF0000C331B6801268E403343654E0C3633602D
:101F000002F0020343B1624B08331E6801238B4089
:101F10001E435F4B08331E6070BD00B500205A4958
:101F20000861C8601420486100208861C8610846C3
:101F3000006840F0010008600846406855490840C4
:101F40005149486008460068534908404E490860B6
:101F50000846006820F4802008600846406820F4A5
:101F6000FE0048600020886000214FF00060FFF70D
:101F70002BFF00BD10B540480830006840F0040059
:101F80003D49083108604048C06940F080503E49F2
:101F9000C8614248406840F4807040494860084643
:101FA000006840F0040008600846006840F0020045
:101FB0000860FEF715F910BD3048001D2E49091DB7
:101FC00008607047014649062F4A926942F00102B3
:101FD0002D4B9A612D4A083A526822F0E0622B4B51
:101FE000083B5A601A4652680A435A60704730B537
:101FF00004460025FFF791FF2348006840F4803035
:102000002149086000BF20480068400C0028FAD031
:102010004FF480601C494860A01EC4B20846406866
:1020200040EA844048600846406840F48030486098
:102030001B48006840F032001949086012480068E7
:1020400040F080701049086000BF0F480068400EE3
:102050000028FAD00C48406840F002000A49486065
:1020600005E009484068C0F3870505F00305022D27
:10207000F7D130BD80FFFF1F08ED00E00000FA053A
:1020800000E100E000E400E0001002400800014030
:10209000000401400000FFF8FFFFF6FE0070004062
:1020A0000020024010B54D48008800F00100A8B1A2
:1020B0004B4800781A2801D1FEF7C9FD484800783E
:1020C000192801D1FEF726FF46480068401C454903
:1020D000086045480078401C434908703F48008824
:1020E00020F001003D49088010BD4FF08040008A7B
:1020F0004FF08040008A20F001004FF080410882BC
:10210000704770B505460C463848C06940F001007C
:102110003649C8610846C06940F00200C8614FF402
:10212000E150410688852D481C3005800A2008852D
:102130002A4818300480C006808940F00100888158
:102140002648001F008840F001002449091F08802C
:1021500002231D2200210120FFF74EFE70BD2448FE
:10216000008800F0010098B12248008840F4004047
:10217000204908801E48008820F001001C49088082
:102180001B481038008820F00100194910390880D8
:10219000704770B505460C461448C06940F02000F1
:1021A0001249C86112481C300580001F0480104885
:1021B000001F008840F001000D49091F08800C48ED
:1021C0001038008840F001000949103908800223C6
:1021D000372203210120FFF70FFE70BD10040040DD
:1021E00008000020300000203400002000100240D1
:1021F000101400402A000020FE48806940F00400CE
:10220000FC4988610846806940F008008861FA4806
:10221000006820F0F000F84908600846006840F0C7
:1022200030000860F548006820F0F000F3490860CD
:102230000846006840F0300008600120F04908605E
:10224000F049C1F884010020ED490860ED49C1F86A
:102250008401704710B50B4600BF048804F04004A9
:10226000002CFAD0002109E000BF048804F04004EB
:10227000002CFAD05C5C84804C1CE1B29142F3DB10
:1022800000BF048804F04004002CFAD010BD70B5E3
:1022900004460D462B462246DB49DC4801F024FC6F
:1022A0002946DA4801F04EFC70BD70B504460125A0
:1022B000D34E356000BFD64D2D8805F04005002D6A
:1022C000F9D044F48075D24E361D358000BFD04D14
:1022D0002D8805F04005002DF9D0CD4D2D1D29800C
:1022E00000200CE000BFCA4D2D8805F04005002DF0
:1022F000F9D0155CC64E361D3580451CE8B29842B3
:10230000F0DB00BFC24D2D8805F04005002DF9D04F
:102310000025BB4E356070BD2DE9F04105460E46E7
:10232000174698460120BB4908604FF4FA70FFF742
:10233000E7FA00BFB848008800F040000028F9D054
:1023400045F48070B449091D088000BFB248008878
:1023500000F040000028F9D0AF48001D068000249E
:102360000CE000BFAC48008800F040000028F9D025
:10237000385DA949091D0880601CC4B24445F0DBE2
:1023800000BFA548008800F040000028F9D00020D8
:10239000A0490860BDE8F0812DE9F04706460F46E8
:1023A00090461C46F01900EB040A4FF0000908E0C3
:1023B00018F8090050441FFA80FA09F1010000F0F2
:1023C000FF09A145F4DBE51C284605EBD071491057
:1023D000A5EB410119B10AF101001FFA80FA00BF13
:1023E0008948001F008800F040000028F8D0C7206E
:1023F0008549088000BF8448001F008800F0400025
:102400000028F8D000208049088000BF7E48001FC7
:10241000008800F040000028F8D0E01C7A490880CD
:1024200000BF7948001F008800F040000028F8D065
:102430007548068000BF7448001F008800F0400007
:102440000028F8D07048078000BF6F48001F008840
:1024500000F040000028F8D06B4804802246414636
:10246000001FFFF7F7FE00BF6748001F008800F05D
:1024700040000028F8D06FEA0A00C0B2401C624950
:10248000088000BF6048001F008800F0400000285E
:10249000F8D0BDE8F0872DE9F04104460E46174616
:1024A000984601205649086000BF208800F040008F
:1024B0000028FAD046F48070A080002509E000BF13
:1024C000208800F040000028FAD0785DA080681CC9
:1024D000C5B24545F3DB00BF208800F0400000286E
:1024E000FAD00520FFF728FA002045490860BDE82A
:1024F000F0812DE9F0410446884616464748075DBD
:102500000025002030700A20FFF716FA4348005DCE
:10251000B84216D1AFB100BF07E0414800EB44100C
:10252000405D08F80500681CC5B2BD42F5DB3B48BC
:10253000005D30703948005D3A4908550020374940
:102540000855BDE8F0817CB505460C46002000EB3F
:102550008400285C8DF80000012000EB8400285CDA
:102560008DF80100022000EB8400285C8DF8020049
:10257000032000EB8400285C8DF80300DD208DF83B
:1025800004008DF80500E11CC8B206236A4602214A
:10259000FFF7C2FE7CBD70B50546002400BF08E011
:1025A0000120FFF7C9F921462846FFF7CCFF601C40
:1025B000C4B2042CF4DB70BD10B504461A48007890
:1025C000D02805D110232246D2210A20FFF76DFE24
:1025D00010BD10B5002415480078401C1349087040
:1025E00000F0BCF80A20FFF7A7F91423104A0121D4
:1025F00008461FE00010024000080140000C0140A6
:102600008401214200802142044C004058040240D1
:102610000044004084812142004800403E000020E8
:10262000C90A0020430000201500002048000020B7
:1026300002010020FFF739FE0A20FFF77DF914237D
:10264000384A02210120FFF730FE0A20FFF774F913
:102650001E23354A03210120FFF727FE0A20FFF73A
:102660006BF90823314A04210120FFF71EFE0020E8
:102670002F49487064212F4801F080FB1420FFF798
:102680005BF92C48203890F82100AA2804D100BF1B
:102690000120294908600EE0012400202649086035
:1026A0000A20FFF749F925480078322803D1002095
:1026B000224908700024204610BDF8B505460C4696
:1026C00000261E480078401C1C49087000F046F89F
:1026D0000A20FFF731F902236A4629460A20FFF74C
:1026E000E4FD0020124948706421124801F046FBC5
:1026F0004620FFF721F90F48203890F82400207079
:102700000C48203890F8250060700A48203890F86E
:102710002600A0700748203890F82700E070304667
:10272000F8BD000086050020E4000020E80100203C
:102730003E000020E90A00208801224248000020D3
:1027400045F25552324B1A601A46506091604AF673
:10275000AA221A604CF6CC421A6070474AF6AA20A8
:102760002B490860704770B506460C461546294847
:10277000C06940F400602749C861274800783040AC
:10278000254908702548006840EAC51023490860BB
:102790000846006840F400700860084600684FF67C
:1027A000807108401D4908600846006820430860A1
:1027B000081F00681849097841F08001084317494B
:1027C000091F08600223002203211846FFF714FBAB
:1027D00070BD1249091F096800F07F0211430F4ABA
:1027E000121F1160704710B50C48006800F07F039D
:1027F0000A48001F006800F07F049C4203DA064884
:102800000078FFF7E6FF00200449091D086010BDAD
:10281000003000400010024049000020042C00401D
:102820001948806940F0100017498861174800680E
:102830004FF6F0718843154908600846006843F276
:1028400030310843114908600120114908601149DD
:10285000C1F8880100200E4908310860704710B5A2
:10286000024600200CE0135C0B4C238000BF0A4B97
:102870001B1F1B8803F04003002BF8D0431CD8B269
:102880008842F0DB10BD704700100240001001408C
:102890008401224200002242043801402DE9F04127
:1028A00004460D46C4F30746C4F3072704F0FF08A7
:1028B000002099490860062000F098F90120974906
:1028C000C1F890010220FFF71BF800209249086030
:1028D000022000F08BF9304600F088F9384600F00D
:1028E00085F9404600F082F9284600F07FF9012082
:1028F0008A49C1F890010220FFF702F800208649BA
:102900000860042000F072F901208449C1F89001A8
:10291000BDE8F0812DE9F04105460C46260AE7B2F4
:1029200031462846FFF7BAFF3946681CFFF7B6FF65
:10293000BDE8F0812DE9F0410446C4F30746C4F335
:10294000072704F0FF08002073490860032000F007
:102950004DF9304600F04AF9384600F047F9404654
:1029600000F044F9F02000F041F9054601206B49E0
:10297000C1F890012846BDE8F08170B505462846AB
:10298000FFF7D8FF20434FF6FF7101EA0024681CCF
:10299000FFF7D0FF0443204670BD2DE9F047044601
:1029A0000E461546C4F30748C4F3072904F0FF0A8E
:1029B000002059490860062000F018F90120574905
:1029C000C1F890010220FEF79BFF002052490860E9
:1029D000022000F00BF9404600F008F9484600F0EC
:1029E00005F9504600F002F9002704E015F8010B44
:1029F00000F0FCF87F1CB742F8D30120464908607C
:102A00000220FEF77DFF00204449C1F89001042018
:102A100000F0ECF8012040490860BDE8F0872DE99E
:102A2000F04704460E461546C4F30748C4F3072989
:102A300004F0FF0A002038490860032000F0D6F8AF
:102A4000404600F0D3F8484600F0D0F8504600F079
:102A5000CDF8002705E0F02000F0C8F805F8010BDC
:102A60007F1CB742F7D301202B490860BDE8F087EF
:102A700001B52B48008842F6F821884203DD42F276
:102A8000107027490880274A012125480088FFF750
:102A900084FF244A521C012121480088401CFFF772
:102AA0007CFF204A921C01211D480088801CFFF7F2
:102AB00074FF1C4AD21C012119480088C01CFFF772
:102AC0006CFF184A121D012115480088001DFFF7F0
:102AD00064FF144A521D012111480088401DFFF770
:102AE0005CFF104A921D01210D480088801DFFF7F0
:102AF00054FF6A4601210A480088C01DFFF74DFFB8
:102B0000074800880830064908800846018842F2D4
:102B10000E70FFF7FFFE08BD900121420000214228
:102B20004A0000205600002000F00700664909888E
:102B30004FF6C7721140644A11801146098841EA74
:102B4000C00111801146098841F040011180704791
:102B500000B55E48806940F004005C498861084621
:102B6000806940F4805088615948006880B25849B3
:102B700008600846006857490843554908605448AA
:102B80000C30006840F0F00051490C3108604E48AC
:102B900000884D4908800846008840F4007008808D
:102BA0000846008840F4807008800846008840F09D
:102BB000040008800846008808800846008840F025
:102BC000020008800846008840F00100088008469E
:102BD000008808800846008808800846008840F081
:102BE000400008800120FFF79FFF00BD0246002142
:102BF00005E0481CC1B2C82901DD002070473248F9
:102C0000008900F002000028F3D02F4882810021C3
:102C100005E0481CC1B2C82901DD0020EEE72A48C2
:102C2000008900F001000028F3D027488089C0B255
:102C3000E4E770B500260025002415E000202649B1
:102C400008602648D0F81801012801D1012600E0CB
:102C5000002646EA4500C5B201201F49086002204F
:102C6000FEF74EFE601CC4B2082CE7DB284670BDA0
:102C700070B50446002018490860002521E00120B5
:102C8000B0EBD41F0CD10020134908600220FEF7DE
:102C900037FE01201149C1F89C010F4908600CE082
:102CA00000200D4908600220FEF72AFE00200B4993
:102CB000C1F89C010120084908606006040E681CE8
:102CC000C5B2082DDBDB70BD0030014000100240B2
:102CD000000801400000B3BB9401214200002142E2
:102CE0001FB5FE4890F8391090F83800303800EBE6
:102CF000800001EB40003038C4B22146F8A000F05B
:102D000031FF012C72DD142C70DAF44890F8460083
:102D10003038F24991F84510303901EB810100EB70
:102D20004100F2490870ED4890F849003038EB490D
:102D300091F84810303901EB810100EB4100EB497B
:102D40004870E64890F84C003038E44991F84B1050
:102D5000303901EB810100EB4100E4498870DF4824
:102D600040783038DD490978303901EB810100EBDA
:102D70004100DE490871D94800793038D749C9780F
:102D8000303901EB810100EB4100D8494871D3484B
:102D9000C0793038D1498979303901EB810100EBB4
:102DA0004100D2498871002000F0E5FBCF488079CE
:102DB000CE494979CD4A1279CC4BDB78CDE9003246
:102DC000CDE90210C948837842780178C8A000F0A4
:102DD000C9FED4480078032808DAD2480078401C9D
:102DE000D04908704FF49670FEF7A6FD1FBDCE497E
:102DF0008979022903D1B94981F82E0000E000BF8A
:102E000000BF7047C8498979072924D1C649C979C3
:102E100007291FDAC449CA79B0493B3188544B238A
:102E2000C149C979491CAD4A3B3253546D23BE494F
:102E3000C979891C53542F23BB49C979C91C5354E0
:102E40006823B949C979091D53540023B649C97982
:102E5000491D535400E000BF00BF7047B249897953
:102E6000092931D1B049C979022905DAAE49C979B0
:102E7000891D9A4A45325054AB49C97901290DDD63
:102E8000A949C979042909DAA749C979491C934A8A
:102E9000453250542D22914981F84A20A249C979DE
:102EA000032910DDA049C97906290CDA9E49C979A0
:102EB000091F8A4A453250542D22884981F84720FB
:102EC000002281F84D2000E000BF00BF704710B520
:102ED000954A92790A2A77D2DFE802F0C905567737
:102EE0007A9B9EA5C9B3904AD279022A03D08E4A12
:102EF000D279052A0FD13A238B4AD479774A0932FD
:102F000013553A22884BDB79744CE254864AD279C5
:102F1000521C854BDA71844AD279082A08DA824A2F
:102F2000D3796E4A0932D0547F4AD2796B4B985488
:102F30006A4A937A527A303A02EB820203EB4202F7
:102F4000283A51B2182903DBA1F1180251B204E06A
:102F5000002902DA01F1180251B20A2291FBF2F2C1
:102F60000A2392FBF3F403FB142230325B4B1A70FA
:102F70000A2291FBF2F302FB13123032574B5A70C4
:102F80000023564A537473E0674AD279032A0DD15D
:102F90002E23654AD479514A12321355624AD279A6
:102FA000521C614BDA7100234C4A53775E4AD27946
:102FB00022B95D4AD279521C5B4BDA715A4AD379F5
:102FC000464A1232D05453E051E0444A90744FE0E4
:102FD000554AD279042A0ED12E23534AD4793F4A36
:102FE0001E321355504AD279521C4F4BDA710023CE
:102FF0003A4A82F82A304C4AD27922B94A4AD279DE
:10300000521C494BDA71484AD379344A1E32D054A3
:103010002EE0324A90772BE0304A82F82C000023D1
:1030200082F82D3024E0404AD279022A04DA3E4A5E
:10303000D3792A4A3832D0540023284A82F83A30C9
:1030400016E0394AD279072A10DA374AD379234A67
:103050002F32D0546D24344AD279521C1F4B2F3357
:103060009C540024304AD279921C9C5400E000BF4A
:1030700000BF10BD10B50446242C08D100202A49F9
:103080000872012008700020C871887110BD2648A0
:103090000078002871D02C2C07D123488079401C5F
:1030A000214988710020C871F0E72A2C05D1002041
:1030B0001D49087001204870E8E71B488079002806
:1030C0005CD11948C079032848D1472C2ED04D2C0B
:1030D00031D0532C3BD0542C3AD132E0690B002034
:1030E0004750532D2D25640A000000005600002093
:1030F000475053D0A3D7BCCAB1BCE43A202564C41E
:10310000EA2564D4C22D2564C8D52DD0C7C6DA25DA
:10311000642D2564CAB12D2564B7D62D2564C3EB73
:103120000A0000004D000020B70B002001202549B7
:103130000872C87011E002202249087201208870CC
:103140000BE003201F4908720120087105E004E02C
:1031500000201C490872087000BF00BF1948C079E0
:10316000042828D11748007A28BB412C23D10420F9
:1031700014490872012048711DE021E01148007ACD
:10318000012806D0022808D003280AD0042810D12C
:103190000BE02046FFF79BFE0CE02046FFF75EFEAB
:1031A00008E02046FFF72EFE04E02046FFF71FFE52
:1031B00000E000BF00BF0348C079401C0149C8714E
:1031C00000BF63E7B70B00208A48806940F0080021
:1031D000884988610846806940F010008861864807
:1031E000006820F47F00844908600846006840F4C5
:1031F0004C1008608148006820F00F007F4908608B
:103200000846006840F00300086001207C4908601F
:103210007C49C1F880017A49091F0860704710B5E0
:103220007548006820F4700073490860084600681B
:1032300040F4401008600120714908607149C1F8EC
:1032400080010220FEF75CFB00206D49086002202F
:10325000FEF756FB00206B49C1F880010220FEF703
:103260004FFB10BD10B56448006820F4700062493F
:1032700008600846006840F440100860002060497B
:1032800008600220FEF73CFB01205E49C1F8800186
:103290000220FEF735FB0120594908600220FEF7A5
:1032A0002FFB10BD10B504465348006820F4700091
:1032B000514908600846006840F4401008601CB19D
:1032C00001204F49086002E000204D4908600220BB
:1032D000FEF716FB01204C4908600220FEF710FBA8
:1032E00000204849C1F880010220FEF709FB10BD0B
:1032F00070B5044600254048006820F470003E493F
:1033000008600846006840F44010086000261AE093
:1033100004F0800018B101203949086002E0002063
:10332000374908600220FEF7EBFA012036490860B1
:103330000220FEF7E5FA00203249C1F8800160065C
:10334000040E701CC6B2082EE2DB01202C49086076
:103350002948006820F47000274908600846006882
:1033600040F4000008600220FEF7CAFA0120254957
:10337000C1F880010220FEF7C3FA214880380068B6
:103380002843C5B200201F49C1F88001284670BDFE
:1033900070B5002401201A4908601748006820F41D
:1033A0007000154908600846006840F40000086095
:1033B000002518E06006040E0220FEF7A1FA0120A5
:1033C000114908600220FEF79BFA1048D0F814015A
:1033D00008B144F0010400200B4908600220FEF708
:1033E0008FFA681CC5B2082DE4DB0020064908608E
:1033F000204670BD0010024000100140000C01404A
:103400009401224200802142808121420000224218
:1034100070B505460C46FFF702FFD020FFF768FFA6
:1034200028B92846FFF764FF2046FFF761FFFFF742
:1034300019FF70BD70B50446FFF7F1FED020FFF70D
:1034400057FF68B92046FFF753FFFFF7E8FED1208A
:10345000FFF74EFFFFF79CFF05460120FFF722FF15
:10346000FFF700FF284670BD01460A46521002F0E1
:10347000780202EBA20001F00F031844C0B27047BB
:10348000014600200BE00A2906DBA1F10A02D1B2B5
:1034900000F11002D0B202E04218D0B200E0F2E730
:1034A00000BF70472DE9F04780460D4616461F467F
:1034B0003FB3FFF7B4FED020FFF71AFFF0B9404644
:1034C000FFF716FFFFF7ABFED120FFF711FF002437
:1034D00012E0FFF75DFF8146FFF7C6FF2870701E00
:1034E000A04203D10120FFF7DDFE02E00020FFF73C
:1034F000D9FE6D1C601CC4B2B442EADBFFF7B2FE19
:1035000017E0FFF78CFED020FFF7F2FE78B94046B7
:10351000FFF7EEFE002408E02878FFF7B1FF8146B0
:10352000FFF7E6FE6D1C601CC4B2B442F4DBFFF78B
:1035300099FEBDE8F0872DE9F04105460F46FFF7FB
:103540006EFED020FFF7D4FE80B92846FFF7D0FEEC
:10355000FFF765FED120FFF7CBFEFFF719FF064608
:10356000FFF782FF04460020FFF79CFEFFF77AFE7C
:103570002046BDE8F0811CB5044644B30123072270
:1035800069460020FFF78EFF9DF8000000F07F00E5
:10359000FE4988719DF8010000F07F0048719DF898
:1035A000020000F03F0008719DF8030000F00700E2
:1035B000C8709DF8040000F03F0088709DF8050079
:1035C00000F01F0048709DF80600087021E0EF48E9
:1035D00080798DF80000ED4840798DF80100EB48C6
:1035E00000798DF80200E948C0788DF80300E748BB
:1035F00080788DF80400E54840788DF80500E348B0
:1036000000788DF806000023072269461846FFF768
:1036100049FF1CBD10B53F20FFF70CFF552801D115
:10362000002010BD0120FCE710B504460120FFF783
:10363000A2FFD6480078022810DA0F20D34908707C
:1036400005204870012088700520C8700C20087182
:103650000120487188710020FFF78DFF0020FFF7DF
:1036600007FA10BD2DE9F04397B004460D46164603
:103670002C22C74901A800F047FB04F5FA64A4F224
:103680006C701190681E10900F9600200E900D9097
:103690000C901290139014900CA800F018FC814626
:1036A00001A800F014FCA9EB0007002F01DB38464D
:1036B00000E078428046404617B0BDE8F083F8B598
:1036C00004460120FFF757FFB04800788DF800004E
:1036D000AE4840788DF80100AC4880788DF8020043
:1036E000A27861782078FFF7BDFF06469DF802209A
:1036F0009DF801109DF80000FFF7B4FF864211DA33
:103700009DF802209DF801109DF80000FFF7AAFF28
:10371000064662792179E078FFF7A4FF864201DA54
:10372000012500E000252846F8BDF0B50346974E78
:1037300036794FF461677E43944F7F79C7EB071763
:1037400006EB8706914FBF79F4194FF461665E432B
:10375000C1EB011706EB8706B518AC4201D3012077
:1037600000E00020F0BD30B587B088484079894935
:103770000978884236D0854840798649087086485D
:10378000007818B184480078022801D1FDF717F8B5
:103790007E4880797D4949797C4A12797B4BDB7878
:1037A000CDE90032CDE9021078488378427801787B
:1037B0007AA000F0D7F904A90020FEF77EFF9DF85B
:1037C00013009DF8124004EBC40505EB041400EB54
:1037D00084039DF811209DF810107BA000F0C2F921
:1037E000FFF77EFA694880797E49097888420BD0D4
:1037F000664880797B490870FEF7B0FF7A48006818
:10380000C0437A49C1F88401604800797849097851
:10381000884206D05D480079754908700120FFF79D
:1038200027F90120FFF7A7FE07B030BD10B588B01B
:10383000012414216F4800F0A1FA6F480078022893
:103840007ED100240FE10A20FEF776F814216948A2
:1038500000F094FAE11CC8B2012300221946FEF7D9
:103860005BFD00206549088000BF6448008800F4C3
:1038700000400028F9D05F48403890F845005D4985
:10388000403991F844105B4A403A92F84320CDE920
:10389000002102905748403890F8423090F841207B
:1038A00090F8401056A000F05DF95248403890F86A
:1038B0004100BB283DD101205A4908704D4840388D
:1038C00090F8421090F84000102202EB800000EBCC
:1038D0008000554A104401714648403890F8431022
:1038E00090F84000012202EB8000103000EB8000D5
:1038F0004D4A104401713F48403890F8441090F808
:103900004000022202EB8000103000EB8000464AAB
:10391000104401713748403890F8451090F8400045
:10392000032202EB8000103000EB80003E4A10447E
:1039300001713048403890F84100EE2876D100E01F
:1039400095E02C48403890F8421090F84000102242
:1039500002EB800000EB8000334A104401712548DF
:10396000403890F8431090F84000012202EB8000AC
:10397000103000EB80002C4A104401711D48403883
:1039800090F8441090F84000022250E056000020C9
:10399000684800085F00002011000020CAB1BCE4A4
:1039A0003A202564C4EA2564D4C22D2564C8D52DE7
:1039B000D0C7C6DA25642D2564CAB12D2564B7D6D3
:1039C0002D2564C3EB0A0000CEC2B6C83D25642E87
:1039D000256420B6C809B5E7D1B93D256420560A4B
:1039E000000000006000002084012242000022420A
:1039F00061000020090B0020340000202800002076
:103A000053656E645F50686173653D3D25783D3D4B
:103A100025783D3D25783D3D25783D3D25783D3D4A
:103A200025780A005E0000201601002019E002EB54
:103A30008000103000EB8000264A104401712648B7
:103A400090F8451090F84000032202EB80001030FF
:103A500000EB80001F4A1044017102201F490870CA
:103A600004E0601CC4B2042CFFF6EDAE00BF1B489E
:103A70000078012817D1102413E004EB84001549C5
:103A800008440079022805D004EB8400084400793A
:103A9000012804D1002004EB84010E4A5054601C1C
:103AA000C4B2202CE9DB0D480078022810D1002098
:103AB0000B4908700B48008820F001000949088074
:103AC000002204A9501EFCF743FF04A8FEF763FD83
:103AD00008B010BD16010020C90A00205E000020B9
:103AE00034000020000400402DE9F04104460F4658
:103AF00016461D461848406940F0020016494861C4
:103B00000120FDF719FFA760E66014480580656095
:103B100000202060206840F01000206020682060B5
:103B200020682060206840F08000206020682060CD
:103B300020682060206840F4805020602068206069
:103B4000BDE8F081026822F0010202604160026873
:103B500042F0010202607047001002406200002043
:103B6000704700000FB4044910B503AA029800F092
:103B7000D7FA10BC5DF814FB240000202DE9F041B9
:103B80000E460446002020622046E168884730B394
:103B9000252805D0D4E901219047206A401CF2E78E
:103BA000E168204600278847050018D0A5F14100AC
:103BB000192802D820354FF400673246294620469E
:103BC0002760FCF7EFFA40B1012804D0F61D26F07B
:103BD00007060836D8E7361DD6E72846DAE7206A12
:103BE000BDE8F08170B50C460546012A05D028785D
:103BF000800600D5EA69002302E0012305E05B1C92
:103C0000934202D2E05C0028F9D1A869E618C01AF4
:103C1000A861286A184428622846AFF3008004E0AF
:103C2000D5E9012114F8010B9047B442F8D3284696
:103C3000AFF3008070BD00002DE9F041064600247E
:103C400010687529314616A510D0AFF30080002802
:103C500002DA404213A507E031688A0701D512A5B0
:103C600002E0490704D511A5012401E0AFF300806B
:103C700000210A2206F1240709E0B0FBF2FCB0FBA8
:103C8000F2F302FB1C00303078541846491C00281F
:103C9000F3D123462A463046BDE8F04100F0D0B9C2
:103CA000000000002D0000002B000000200000009C
:103CB00070B504460D4621461068AFF30080218898
:103CC000090502D50F4A7A4402E00E4A7A440E32C0
:103CD000002104F1240305E000F00F060009965DC1
:103CE0005E54491C0028F7D120780023000704D532
:103CF000702D02D009B1022311322046BDE8704078
:103D000000F09EB9CA0B000010B5203AC0F00B803D
:103D1000B1E81850203AA0E81850B1E81850A0E8CF
:103D20001850BFF4F5AF5FEA027C24BFB1E8185029
:103D3000A0E8185044BF18C918C0BDE810405FEA99
:103D4000827C24BF51F8043B40F8043B08BF704715
:103D5000D20728BF31F8023B48BF11F8012B28BF1A
:103D600020F8023B48BF00F8012B704702F0FF0328
:103D700043EA032242EA024200F002B84FF0000296
:103D80000429C0F0128010F0030C00F01B80CCF16D
:103D9000040CBCF1020F18BF00F8012BA8BF20F8DB
:103DA000022BA1EB0C0100F00DB85FEAC17C24BF2F
:103DB00000F8012B00F8012B48BF00F8012B7047D9
:103DC0004FF0000200B5134694469646203922BFB4
:103DD000A0E80C50A0E80C50B1F12001BFF4F7AFFF
:103DE000090728BFA0E80C5048BF0CC05DF804EBE1
:103DF000890028BF40F8042B08BF704748BF20F84F
:103E0000022B11F0804F18BF00F8012B7047000003
:103E10004FF0013C50F8042B51F8043B9A4221D159
:103E2000A2EB0C03934313EACC1317D150F8042BE5
:103E300051F8043B9A4215D1A2EB0C03934313EAC9
:103E4000CC130BD150F8042B51F8043B9A4209D102
:103E5000A2EB0C03934313EACC13DBD04FF000002A
:103E6000704700BFD01A01BAB1FA81F101F0180110
:103E700022FA01F0CB40C1F12001DBB2C0B2C01A7E
:103E80002CFA01F3D11A914311EAC311E6D170471C
:103E900010B503681C1404EB21449BB289B2194489
:103EA00094FBF2F302FB134394FBF2F401EB0343A4
:103EB00093FBF2F102FB113193FBF2F301E05B1E85
:103EC00011440029FBDB016003EB044010BD2DE928
:103ED000F04704464FF0FF3A86B0006802906068F1
:103EE0000390A0680490E0680190206900906569E3
:103EF00005F18040B0F1004F7DD83C22002102A89E
:103F0000FFF7C6FF3C22014603A8FFF7C1FF1822B6
:103F1000014604A8FFF7BCFF411E40F2B55201A8BC
:103F2000FFF7B6FF0C22064668460021FFF7B0FFF8
:103F300000EB860028443E4D00267D440FE09A1A8F
:103F4000491CCDE90012022902D00C2907D104E056
:103F5000810704D0521C019201E0401C0096009998
:103F6000019B6A5C9A42EADD012906D11C2B04D12F
:103F7000810702D00221CDE90016A0F146018B296C
:103F800040D20199009B00220F4602E0AE5C521C19
:103F900031449A42FADB012B02DD820700D0491E30
:103FA00040F2B55540F26D16C21700EB92729210B6
:103FB0006A4300F0030505FB062285070A4400D189
:103FC000521E049D02EB4206DDF80C80A94605EB6B
:103FD000C605184EC5EB0515DDF808C008EB8505CC
:103FE00035442E14ADB2C6EB0616C5EB0515B6006A
:103FF0000CEB850500E005E006EB154666F31F4572
:10400000360C03D0504606B0BDE8F087C4E9043052
:104010007F1C0720521CC4E9029792FBF0F3E4E8EE
:1040200006C800FB132084E803042846EBE70000E1
:104030007E090000A039CEFD704770477047704779
:104040002DE9F0470D4699469246044600F12408B2
:104050000168880604D5E06921F01001216000E0C4
:104060000120A84201DD471B00E00027A1697A1961
:1040700002EB0900081AA0612078C00602D420468D
:10408000AFF30080002608E0D4E901211AF8060009
:104090009047206A401C761C20624E45F4DB207855
:1040A000C0060AD52046AFF3008006E0D4E901211E
:1040B00030209047206A401C2062381EA7F101077B
:1040C000F4DC07E0D4E9012118F805009047206AE4
:1040D000401C2062281EA5F10105F3DC2046AFF349
:1040E00000802078000602D50220BDE8F08701207C
:1040F000FBE710B5436913B1AFF3008001E0FFF7B0
:1041000071FD012010BD127800F124010A70002217
:104110004A700122EDE711684FF0FF32E9E7000035
:10412000074B70B50D467B4400F011F80446284655
:1041300000F020F810B14FF0FF3070BD204670BD88
:1041400055D8FFFF01694A1C02610878704700B525
:104150008FB0CDE901310021059105497944CDE9C0
:10416000031011466846FFF709FD0FB000BD0000BF
:10417000E5FFFFFF007B00F080007047754600F010
:1041800029F8AE4605006946534620F007008546EB
:1041900018B020B5FCF73CF8BDE820404FF0000611
:1041A0004FF000074FF000084FF0000B21F007011F
:1041B000AC46ACE8C009ACE8C009ACE8C009ACE862
:1041C000C0098D4670470446AFF300802046FCF7D7
:1041D00001F8000000487047E00B002090EA010F52
:1041E00048BF81F0004100F12E82421A3CBF801A84
:1041F00089184FEAD0524FF07F4C1CEA410FA2EBD6
:10420000D15318BF9CEA026F00F03B804FF0004C86
:104210004CEA00204CEA012121FA03FC10EB0C0CC3
:104220001ED202F1FF325FEA1C2040EBC25038BFC1
:1042300070471CF07F0F4FEA400C18BFBCF17F4F56
:1042400038BF7047C3F12003994008BF20F0010038
:10425000BCF17F4F38BF7047A0F1C04000F0DDB91E
:104260004FEA3C00000A40EBC25028BF1CF0FF0F91
:104270004FEA400CE6D018BFBCF17F4F38BF704703
:10428000EAE79CEA026F05D010EA5C0F08BF00F075
:104290000040704710B500F07AF900BF64FBBE3EE5
:1042A0004FF47F0C1CEAD0121EBF1CEAD11392EA15
:1042B0000C0F93EA0C0F00F0858090EA010F48BFC5
:1042C00042F4807240F4000C41F400002CF07F4175
:1042D00020F07F4000B58142A2EB03020FF2081CE0
:1042E000ACEB504EC0F100009EF800E04FEA4E0EDD
:1042F00000FB0EFC38BF49004FEA2C1C02F5FA0205
:104300000CFB0EF34FEACE1E4FEA112C4FEAC121EF
:104310000EEB635E42EB22420EFB0CFC4FEA1C5399
:1043200000FB03114FEA112C4FEA01310EFB0CFC8C
:104330004FEADC4C00FB0C11C14228BF09184CEBC2
:1043400003335DF804EB10EB410143EBC250B2F5CF
:104350007C0F38BF704729D512F0F00F1CBF00F159
:10436000C04000F0004070470081828384858687CA
:1043700088898B8C8D8E8F919293959697999A9C24
:104380009D9FA0A2A3A5A7A8AAACAEB0B2B3B5B793
:10439000B9BCBEC0C2C5C7C9CCCED1D4D7D9DCDF69
:1043A000E2E6E9ECF0F3F7FAFE0000004FEA400C19
:1043B0000CF1807CBCF17E4F28BF7047B0F1C0404B
:1043C00000F02BB990EA010F0CEAD11348BF42F478
:1043D0008072624538BF634507D213F47F0F16D051
:1043E00080EA010000F00040704710B500F0CFF8FF
:1043F000097EFC3E00F005B880EA010000F00040B4
:10440000704780EA010000F0004000F006B912F4A5
:104410007F0F04BF0248704780EA010000F0FDB83A
:104420000000C07FC10DD1F19E0206DB4FEA0023E0
:1044300043F0004323FA02F07047004207D54FEAE9
:104440004001B1F1FE4F02D24FF00000704710B5AD
:1044500000F09DF849922480002070476FEA200008
:1044600070470000B0FA80F310FA03F2C3F19D0325
:104470000AD0D90501EB1220530638BF704700F16E
:10448000010008BF20F00100704700004FF47F0CCE
:104490001CEAD0121EBF1CEAD11392EA0C0F93EA59
:1044A0000C0F00F0478090EA010F48BF42F4807281
:1044B0004FF0004C4CEA00204CEA012102EB0302D1
:1044C000A0FB0113A2F50002002918BF43F001036D
:1044D0005B0028BF4FEA330342EB22425FEA132C12
:1044E0004CEBC2502EBFBCEB436FB2F57C0F704754
:1044F0004FEA036CBCF1004F08BF20F00100B2F599
:104500007C0F38BF70470BD582F0FF0212F5803F59
:10451000C8BF704700F1C040D8BF00F000407047EE
:1045200000F5000C5FEA4C0C48BF7047B0F1C0408A
:1045300000F073B890EA010F0CEAD11348BF42F4BF
:104540008072624538BF634504D280EA010000F002
:104550000040704710B500F01AF800BF8900013E16
:1045600000F007B800F009B85FEA410C5FEA1C6C84
:1045700008D080EA010000F050B85FEA400C5FEA22
:104580001C6CF6D14FF00040A0F5800070470EF192
:10459000020E2EF0030E5EF8044B244204D44FEAC0
:1045A0004102B2F17F4F11D84FEA4003B3F17F4F80
:1045B0000CD80ED14FEAD07CB2F17F4F0CEB4C0CF3
:1045C0000CF1020C08BF4CEBD17C04E04FF0080C5E
:1045D00001E04FEAD17C0CEB4C0324FA03F404F025
:1045E0000704B4F1040C06D20EEB840CBDE81040B5
:1045F0004CF0010C6047DFE80CF0070802024FF0B6
:104600000040A0F5800010BD0846420018BFD2F15E
:10461000807288BF00F0004010BDFF2141EAD050F9
:10462000C005704780F0004090EA010F7FF5DDADD6
:1046300081F0004100F007B890EA010F48BF81F017
:1046400000413FF5D2AD421A04D882F00042A0EBFF
:10465000020011444FEAD0524FF07F4C1CEA410F48
:10466000A2EBD15318BF9CEA026F4AD04FF0004C26
:104670004CEA00204CEA012121FA03FCB0EB0C0CBF
:104680000FD412F0FE0F36D05FEA4C001DD5001299
:1046900040EBC25038BF70471CF03F0F18BF704747
:1046A0000BE0A2F101025FEA1C2040EBC25038BFD0
:1046B00070471CF07F0F18BF7047C3F1200399406B
:1046C00014BF401E20F00100704780084FEA1223FB
:1046D00008BF7047B0FA80FCA2EB0C02CCF1280CAA
:1046E00060FA0CF093EA122F04BF00EBC25070473F
:1046F0004FEAC3707047130A5FEADC1008BF7047C7
:10470000F6E79CEA026F04D010EA5C0F08BF0020B5
:10471000704710B5FFF73BFF40DFF63E81F00040E9
:1047200070470000010000010410000102030405AD
:1047300006070801020000007F14010101010000CA
:104740001E00010000001401010101001208000513
:104750000000001401010101001209000600000020
:10476000FF00000000FF000022DD0000DD2200004D
:1047700000040A000A010A020A0300000000000007
:10478000000000000104150010010E0225030000C6
:1047900000000000000000000204090105020503FA
:1047A000050400000000000000000000071116636F
:1047B00000338373137483136473137483136473E8
:1047C00013748313647300000711166300338600AB
:1047D0001A75081E05031A75081E05031A75081EAA
:1047E00005030000010304001113141021232420E9
:1047F00031333430010100000202000003030000E5
:1048000004040000BFAABBFA000000000000CAB107
:10481000BCE4D0A3D7BC0000B9D8B1D5CDE2B5C6B1
:104820000000B4F2BFAACDE2B5C60000D1ADBBB75F
:10483000B2E2B5C60000CFB5CDB3B8B4CEBB000070
:10484000B2E9BFB4C8D5D6BE0000C7E5B3FDB9CA4A
:10485000D5CF0000C9CFB4ABC5E4D6C30000CFC2EA
:10486000D4D8B7BDB0B8000064000000000000005C
:104870000100000000000000000000000000000037
:104880000000000000000000000000000000000028
:104890000000000030313233343536373839414288
:1048A0004344454640305800303132333435363792
:1048B0003839616263646566403078001F1D1F1ED1
:1048C0001F1E1F1F1E1F1E1FE8480008000000209B
:1048D000640000006C0100084C49000864000020DE
:1048E000DC13000088010008000000000000000048
:1048F0001A0000000000000000000000000000009E
:1049000000000000000000000000000000000000A7
:104910000000000000000000000000000000000097
:104920000000000000000000000000000000000087
:10493000007F0000000000000000000000000B12DB
:0C49400011021A0B0F0000000000000024
:0400000508000131BD
:00000001FF
